{
  "contractName": "TransferToken",
  "abi": [
    {
      "inputs": [
        {
          "internalType": "address[]",
          "name": "trusted_contracts",
          "type": "address[]"
        }
      ],
      "stateMutability": "nonpayable",
      "type": "constructor"
    },
    {
      "inputs": [
        {
          "internalType": "address",
          "name": "newManager",
          "type": "address"
        }
      ],
      "name": "changeManager",
      "outputs": [],
      "stateMutability": "nonpayable",
      "type": "function"
    },
    {
      "inputs": [
        {
          "internalType": "address",
          "name": "c",
          "type": "address"
        }
      ],
      "name": "isTrustedContract",
      "outputs": [
        {
          "internalType": "bool",
          "name": "",
          "type": "bool"
        }
      ],
      "stateMutability": "view",
      "type": "function"
    },
    {
      "inputs": [
        {
          "internalType": "address",
          "name": "c",
          "type": "address"
        },
        {
          "internalType": "bool",
          "name": "state",
          "type": "bool"
        }
      ],
      "name": "setTrustedContractState",
      "outputs": [],
      "stateMutability": "nonpayable",
      "type": "function"
    },
    {
      "inputs": [
        {
          "internalType": "address",
          "name": "tokenContract",
          "type": "address"
        },
        {
          "internalType": "uint256",
          "name": "value",
          "type": "uint256"
        }
      ],
      "name": "retrieveToken",
      "outputs": [],
      "stateMutability": "nonpayable",
      "type": "function"
    },
    {
      "inputs": [
        {
          "internalType": "address",
          "name": "operator",
          "type": "address"
        },
        {
          "internalType": "address",
          "name": "from",
          "type": "address"
        },
        {
          "internalType": "address",
          "name": "to",
          "type": "address"
        },
        {
          "internalType": "uint256",
          "name": "amount",
          "type": "uint256"
        },
        {
          "internalType": "bytes",
          "name": "userData",
          "type": "bytes"
        },
        {
          "internalType": "bytes",
          "name": "operatorData",
          "type": "bytes"
        }
      ],
      "name": "tokensReceived",
      "outputs": [],
      "stateMutability": "nonpayable",
      "type": "function"
    }
  ],
  "bytecode": "0x608060405234801561001057600080fd5b506040516111223803806111228339818101604052602081101561003357600080fd5b810190808051604051939291908464010000000082111561005357600080fd5b8382019150602082018581111561006957600080fd5b825186602082028301116401000000008211171561008657600080fd5b8083526020830192505050908051906020019060200280838360005b838110156100bd5780820151818401526020810190506100a2565b5050505090500160405250505060005b815181101561014d5760016000808484815181106100e757fe5b602002602001015173ffffffffffffffffffffffffffffffffffffffff1673ffffffffffffffffffffffffffffffffffffffff16815260200190815260200160002060006101000a81548160ff02191690831515021790555080806001019150506100cd565b5033600160006101000a81548173ffffffffffffffffffffffffffffffffffffffff021916908373ffffffffffffffffffffffffffffffffffffffff1602179055507388887ed889e776bcbe2f0f9932ecfabcdfcd182073ffffffffffffffffffffffffffffffffffffffff166329965a1d307fb281fc8c12954d22544db45de3159a39272895b169a852b314f9cc762e44c53b306040518463ffffffff1660e01b8152600401808473ffffffffffffffffffffffffffffffffffffffff1681526020018360001b81526020018273ffffffffffffffffffffffffffffffffffffffff1681526020019350505050600060405180830381600087803b15801561025557600080fd5b505af1158015610269573d6000803e3d6000fd5b5050505050610ea58061027d6000396000f3fe608060405234801561001057600080fd5b50600436106100555760003560e01c806223de291461005a578062589be4146101925780635bf3a315146101e25780635c511fe21461023c578063a3fbbaae1461028a575b600080fd5b610190600480360360c081101561007057600080fd5b81019080803573ffffffffffffffffffffffffffffffffffffffff169060200190929190803573ffffffffffffffffffffffffffffffffffffffff169060200190929190803573ffffffffffffffffffffffffffffffffffffffff16906020019092919080359060200190929190803590602001906401000000008111156100f757600080fd5b82018360208201111561010957600080fd5b8035906020019184600183028401116401000000008311171561012b57600080fd5b90919293919293908035906020019064010000000081111561014c57600080fd5b82018360208201111561015e57600080fd5b8035906020019184600183028401116401000000008311171561018057600080fd5b90919293919293905050506102ce565b005b6101e0600480360360408110156101a857600080fd5b81019080803573ffffffffffffffffffffffffffffffffffffffff1690602001909291908035151590602001909291905050506108ac565b005b610224600480360360208110156101f857600080fd5b81019080803573ffffffffffffffffffffffffffffffffffffffff1690602001909291905050506109c9565b60405180821515815260200191505060405180910390f35b6102886004803603604081101561025257600080fd5b81019080803573ffffffffffffffffffffffffffffffffffffffff16906020019092919080359060200190929190505050610a1e565b005b6102cc600480360360208110156102a057600080fd5b81019080803573ffffffffffffffffffffffffffffffffffffffff169060200190929190505050610cae565b005b3073ffffffffffffffffffffffffffffffffffffffff168673ffffffffffffffffffffffffffffffffffffffff161461036f576040517f08c379a00000000000000000000000000000000000000000000000000000000081526004018080602001828103825260208152602001807f73686f756c64207472616e7366657220746f207468697320636f6e747261637481525060200191505060405180910390fd5b6000803373ffffffffffffffffffffffffffffffffffffffff1673ffffffffffffffffffffffffffffffffffffffff16815260200190815260200160002060009054906101000a900460ff16610410576040517f08c379a0000000000000000000000000000000000000000000000000000000008152600401808060200182810382526036815260200180610de06036913960400191505060405180910390fd5b6060808585604081101561042357600080fd5b810190808035906020019064010000000081111561044057600080fd5b82018360208201111561045257600080fd5b8035906020019184602083028401116401000000008311171561047457600080fd5b919080806020026020016040519081016040528093929190818152602001838360200280828437600081840152601f19601f820116905080830192505050505050509192919290803590602001906401000000008111156104d457600080fd5b8201836020820111156104e657600080fd5b8035906020019184602083028401116401000000008311171561050857600080fd5b919080806020026020016040519081016040528093929190818152602001838360200280828437600081840152601f19601f8201169050808301925050505050505091929192905050509150915060008251905081518351146105d3576040517f08c379a000000000000000000000000000000000000000000000000000000000815260040180806020018281038252601d8152602001807f746f7320616e642076616c73206c656e677468206e6f74206d6174636800000081525060200191505060405180910390fd5b6000805b82811015610602578381815181106105eb57fe5b6020026020010151820191508060010190506105d7565b5088811461065b576040517f08c379a000000000000000000000000000000000000000000000000000000000815260040180806020018281038252602a815260200180610db6602a913960400191505060405180910390fd5b60007388887ed889e776bcbe2f0f9932ecfabcdfcd182073ffffffffffffffffffffffffffffffffffffffff1663aabbb8ca337fac7fbab5f54a3ca8194167523c6753bfeb96a445279294b6125b68cce21770546040518363ffffffff1660e01b8152600401808373ffffffffffffffffffffffffffffffffffffffff1681526020018281526020019250505060206040518083038186803b15801561070057600080fd5b505afa158015610714573d6000803e3d6000fd5b505050506040513d602081101561072a57600080fd5b81019080805190602001909291905050509050600073ffffffffffffffffffffffffffffffffffffffff168173ffffffffffffffffffffffffffffffffffffffff1614156107c3576040517f08c379a000000000000000000000000000000000000000000000000000000000815260040180806020018281038252602b815260200180610e16602b913960400191505060405180910390fd5b60005b8381101561089c578173ffffffffffffffffffffffffffffffffffffffff16639bd9bbc68783815181106107f657fe5b602002602001015187848151811061080a57fe5b60200260200101516040518363ffffffff1660e01b8152600401808373ffffffffffffffffffffffffffffffffffffffff168152602001828152602001806020018281038252600081526020016020019350505050600060405180830381600087803b15801561087957600080fd5b505af115801561088d573d6000803e3d6000fd5b505050508060010190506107c6565b5050505050505050505050505050565b600160009054906101000a900473ffffffffffffffffffffffffffffffffffffffff1673ffffffffffffffffffffffffffffffffffffffff163373ffffffffffffffffffffffffffffffffffffffff161461096f576040517f08c379a00000000000000000000000000000000000000000000000000000000081526004018080602001828103825260158152602001807f53656e646572206973206e6f74206d616e61676572000000000000000000000081525060200191505060405180910390fd5b806000808473ffffffffffffffffffffffffffffffffffffffff1673ffffffffffffffffffffffffffffffffffffffff16815260200190815260200160002060006101000a81548160ff0219169083151502179055505050565b60008060008373ffffffffffffffffffffffffffffffffffffffff1673ffffffffffffffffffffffffffffffffffffffff16815260200190815260200160002060009054906101000a900460ff169050919050565b600160009054906101000a900473ffffffffffffffffffffffffffffffffffffffff1673ffffffffffffffffffffffffffffffffffffffff163373ffffffffffffffffffffffffffffffffffffffff1614610ae1576040517f08c379a00000000000000000000000000000000000000000000000000000000081526004018080602001828103825260158152602001807f53656e646572206973206e6f74206d616e61676572000000000000000000000081525060200191505060405180910390fd5b808273ffffffffffffffffffffffffffffffffffffffff166370a08231306040518263ffffffff1660e01b8152600401808273ffffffffffffffffffffffffffffffffffffffff16815260200191505060206040518083038186803b158015610b4957600080fd5b505afa158015610b5d573d6000803e3d6000fd5b505050506040513d6020811015610b7357600080fd5b81019080805190602001909291905050501015610bdb576040517f08c379a000000000000000000000000000000000000000000000000000000000815260040180806020018281038252602f815260200180610e41602f913960400191505060405180910390fd5b8173ffffffffffffffffffffffffffffffffffffffff1663a9059cbb600160009054906101000a900473ffffffffffffffffffffffffffffffffffffffff16836040518363ffffffff1660e01b8152600401808373ffffffffffffffffffffffffffffffffffffffff16815260200182815260200192505050602060405180830381600087803b158015610c6e57600080fd5b505af1158015610c82573d6000803e3d6000fd5b505050506040513d6020811015610c9857600080fd5b8101908080519060200190929190505050505050565b600160009054906101000a900473ffffffffffffffffffffffffffffffffffffffff1673ffffffffffffffffffffffffffffffffffffffff163373ffffffffffffffffffffffffffffffffffffffff1614610d71576040517f08c379a00000000000000000000000000000000000000000000000000000000081526004018080602001828103825260158152602001807f53656e646572206973206e6f74206d616e61676572000000000000000000000081525060200191505060405180910390fd5b80600160006101000a81548173ffffffffffffffffffffffffffffffffffffffff021916908373ffffffffffffffffffffffffffffffffffffffff1602179055505056fe416d6f756e742073686f756c6420657175616c20746f207468652073756d206f66207472616e736665725468652045524337373720546f6b656e206973206e6f74207265676973746572656420696e20726f7574696e6720636f6e74726163744d6573736167652073656e6465722073686f756c6420626520616e2065726337373720636f6e74726163745472616e736665722076616c75652069732067726561746572207468616e20636f6e74726163742062616c616e6365a2646970667358221220d3d8c5472a6ca2aea71167f58ba5c89ee57d6629ab381b70385241fcb458c25b64736f6c634300060c0033",
  "immutableReferences": {},
  "source": "// contracts/GLDToken.sol\n// SPDX-License-Identifier: MIT\npragma solidity >=0.6.2 <0.8.0;\n\n// import \"@openzeppelin/contracts/token/ERC777/ERC777.sol\";\n\nimport \"@openzeppelin/contracts/token/ERC20/IERC20.sol\";\nimport \"@openzeppelin/contracts/token/ERC777/IERC777.sol\";\nimport \"@openzeppelin/contracts/token/ERC777/IERC777Recipient.sol\";\nimport \"@openzeppelin/contracts/introspection/IERC1820Registry.sol\";\n\ncontract TransferToken is IERC777Recipient {\n    IERC1820Registry internal constant _ERC1820_REGISTRY =\n        IERC1820Registry(0x88887eD889e776bCBe2f0f9932EcFaBcDfCd1820);\n\n    mapping(address => bool) internal _trustedContracts;\n    address internal _manager;\n\n    modifier onlyManager {\n        require(msg.sender == _manager, \"Sender is not manager\");\n        _;\n    }\n\n    constructor(address[] memory trusted_contracts) public {\n        for (uint256 i = 0; i < trusted_contracts.length; i++) {\n            _trustedContracts[trusted_contracts[i]] = true;\n        }\n        _manager = msg.sender;\n        // keccak256(abi.encodePacked(\"ERC777TokensRecipient\")) == 0xb281fc8c12954d22544db45de3159a39272895b169a852b314f9cc762e44c53b\n        _ERC1820_REGISTRY.setInterfaceImplementer(\n            address(this),\n            0xb281fc8c12954d22544db45de3159a39272895b169a852b314f9cc762e44c53b,\n            address(this)\n        );\n    }\n\n    function changeManager(address newManager) public onlyManager {\n        _manager = newManager;\n    }\n\n    function isTrustedContract(address c) public view returns (bool) {\n        return _trustedContracts[c];\n    }\n\n    function setTrustedContractState(address c, bool state) public onlyManager {\n        // require(msg.sender == _manager);\n        _trustedContracts[c] = state;\n    }\n\n    function retrieveToken(address tokenContract, uint256 value)\n        public\n        onlyManager\n    {\n        // require balance > value\n        // address implementer = _ERC1820_REGISTRY.getInterfaceImplementer(msg.sender, keccak256(\"ERC777Token\"));\n        // require (implementer != address(0), \"Token contract should be an erc777 contract\");\n\n        require(\n            IERC20(tokenContract).balanceOf(address(this)) >= value,\n            \"Transfer value is greater than contract balance\"\n        );\n        IERC20(tokenContract).transfer(_manager, value);\n    }\n\n    // @notice called when someone attempts to transfer ERC-777 tokens to this address.  If this function were to throw or doesn't exist, then the token transfer would fail.\n    function tokensReceived(\n        address operator,\n        address from,\n        address to,\n        uint256 amount,\n        bytes calldata userData,\n        bytes calldata operatorData\n    ) external override {\n        require(to == address(this), \"should transfer to this contract\");\n        // require msg.sender be trusted contracts\n        require(\n            _trustedContracts[msg.sender],\n            \"The ERC777 Token is not registered in routing contract\"\n        );\n\n        (address[] memory tos, uint256[] memory vals) =\n            abi.decode(userData, (address[], uint256[]));\n\n        uint256 length = tos.length;\n\n        require(tos.length == vals.length, \"tos and vals length not match\");\n\n        // 检查 amount 相同\n        uint256 sum = 0;\n        for (uint256 i = 0; i < length; ++i) {\n            sum += vals[i];\n        }\n        require(sum == amount, \"Amount should equal to the sum of transfer\");\n\n        // msg.sender是被信任的 因此其implementer也是被信任的\n        // 或者要求 msg.sender == implementer，这样能否不用设置 trusted contracts？\n        address implementer =\n            _ERC1820_REGISTRY.getInterfaceImplementer(\n                msg.sender,\n                keccak256(\"ERC777Token\")\n            );\n        require(\n            implementer != address(0),\n            \"Message sender should be an erc777 contract\"\n        );\n        for (uint256 i = 0; i < length; ++i) {\n            IERC777(implementer).send(tos[i], vals[i], \"\");\n        }\n    }\n}\n",
  "sourcePath": "/Users/zhangwenda/Documents/code/TokenBatchSender/contracts/TransferToken.sol",
  "compiler": {
    "name": "solc",
    "version": "0.6.12+commit.27d51765.Emscripten.clang"
  },
  "schemaVersion": "3.3.4",
  "updatedAt": "2021-05-09T03:12:14.943Z",
  "devdoc": {
    "kind": "dev",
    "methods": {
      "tokensReceived(address,address,address,uint256,bytes,bytes)": {
        "details": "Called by an {IERC777} token contract whenever tokens are being moved or created into a registered account (`to`). The type of operation is conveyed by `from` being the zero address or not. This call occurs _after_ the token contract's state is updated, so {IERC777-balanceOf}, etc., can be used to query the post-operation state. This function may revert to prevent the operation from being executed."
      }
    },
    "version": 1
  },
  "userdoc": {
    "kind": "user",
    "methods": {},
    "version": 1
  }
}