{
  "contractName": "TransferToken",
  "abi": [
    {
      "inputs": [
        {
          "internalType": "address[]",
          "name": "trusted_contracts",
          "type": "address[]"
        }
      ],
      "stateMutability": "nonpayable",
      "type": "constructor"
    },
    {
      "inputs": [
        {
          "internalType": "address",
          "name": "newManager",
          "type": "address"
        }
      ],
      "name": "changeManager",
      "outputs": [],
      "stateMutability": "nonpayable",
      "type": "function"
    },
    {
      "inputs": [
        {
          "internalType": "address",
          "name": "c",
          "type": "address"
        }
      ],
      "name": "isTrustedContract",
      "outputs": [
        {
          "internalType": "bool",
          "name": "",
          "type": "bool"
        }
      ],
      "stateMutability": "view",
      "type": "function"
    },
    {
      "inputs": [
        {
          "internalType": "address",
          "name": "c",
          "type": "address"
        },
        {
          "internalType": "bool",
          "name": "state",
          "type": "bool"
        }
      ],
      "name": "setTrustedContractState",
      "outputs": [],
      "stateMutability": "nonpayable",
      "type": "function"
    },
    {
      "inputs": [
        {
          "internalType": "address",
          "name": "tokenContract",
          "type": "address"
        },
        {
          "internalType": "uint256",
          "name": "value",
          "type": "uint256"
        }
      ],
      "name": "retrieveToken",
      "outputs": [],
      "stateMutability": "nonpayable",
      "type": "function"
    },
    {
      "inputs": [
        {
          "internalType": "bytes",
          "name": "userData",
          "type": "bytes"
        }
      ],
      "name": "send",
      "outputs": [],
      "stateMutability": "payable",
      "type": "function"
    },
    {
      "inputs": [
        {
          "internalType": "address",
          "name": "operator",
          "type": "address"
        },
        {
          "internalType": "address",
          "name": "from",
          "type": "address"
        },
        {
          "internalType": "address",
          "name": "to",
          "type": "address"
        },
        {
          "internalType": "uint256",
          "name": "amount",
          "type": "uint256"
        },
        {
          "internalType": "bytes",
          "name": "userData",
          "type": "bytes"
        },
        {
          "internalType": "bytes",
          "name": "operatorData",
          "type": "bytes"
        }
      ],
      "name": "tokensReceived",
      "outputs": [],
      "stateMutability": "nonpayable",
      "type": "function"
    }
  ],
  "bytecode": "0x608060405234801561001057600080fd5b506040516114f83803806114f88339818101604052602081101561003357600080fd5b810190808051604051939291908464010000000082111561005357600080fd5b8382019150602082018581111561006957600080fd5b825186602082028301116401000000008211171561008657600080fd5b8083526020830192505050908051906020019060200280838360005b838110156100bd5780820151818401526020810190506100a2565b5050505090500160405250505060005b815181101561014d5760016000808484815181106100e757fe5b602002602001015173ffffffffffffffffffffffffffffffffffffffff1673ffffffffffffffffffffffffffffffffffffffff16815260200190815260200160002060006101000a81548160ff02191690831515021790555080806001019150506100cd565b5033600160006101000a81548173ffffffffffffffffffffffffffffffffffffffff021916908373ffffffffffffffffffffffffffffffffffffffff1602179055507388887ed889e776bcbe2f0f9932ecfabcdfcd182073ffffffffffffffffffffffffffffffffffffffff166329965a1d307fb281fc8c12954d22544db45de3159a39272895b169a852b314f9cc762e44c53b306040518463ffffffff1660e01b8152600401808473ffffffffffffffffffffffffffffffffffffffff1681526020018360001b81526020018273ffffffffffffffffffffffffffffffffffffffff1681526020019350505050600060405180830381600087803b15801561025557600080fd5b505af1158015610269573d6000803e3d6000fd5b505050505061127b8061027d6000396000f3fe6080604052600436106100535760003560e01c806223de2914610058578062589be41461019d5780632bb1ae7c146101fa5780635bf3a315146102b55780635c511fe21461031c578063a3fbbaae14610377575b600080fd5b34801561006457600080fd5b5061019b600480360360c081101561007b57600080fd5b81019080803573ffffffffffffffffffffffffffffffffffffffff169060200190929190803573ffffffffffffffffffffffffffffffffffffffff169060200190929190803573ffffffffffffffffffffffffffffffffffffffff169060200190929190803590602001909291908035906020019064010000000081111561010257600080fd5b82018360208201111561011457600080fd5b8035906020019184600183028401116401000000008311171561013657600080fd5b90919293919293908035906020019064010000000081111561015757600080fd5b82018360208201111561016957600080fd5b8035906020019184600183028401116401000000008311171561018b57600080fd5b90919293919293905050506103c8565b005b3480156101a957600080fd5b506101f8600480360360408110156101c057600080fd5b81019080803573ffffffffffffffffffffffffffffffffffffffff1690602001909291908035151590602001909291905050506109a6565b005b6102b36004803603602081101561021057600080fd5b810190808035906020019064010000000081111561022d57600080fd5b82018360208201111561023f57600080fd5b8035906020019184600183028401116401000000008311171561026157600080fd5b91908080601f016020809104026020016040519081016040528093929190818152602001838380828437600081840152601f19601f820116905080830192505050505050509192919290505050610ac3565b005b3480156102c157600080fd5b50610304600480360360208110156102d857600080fd5b81019080803573ffffffffffffffffffffffffffffffffffffffff169060200190929190505050610d9f565b60405180821515815260200191505060405180910390f35b34801561032857600080fd5b506103756004803603604081101561033f57600080fd5b81019080803573ffffffffffffffffffffffffffffffffffffffff16906020019092919080359060200190929190505050610df4565b005b34801561038357600080fd5b506103c66004803603602081101561039a57600080fd5b81019080803573ffffffffffffffffffffffffffffffffffffffff169060200190929190505050611084565b005b3073ffffffffffffffffffffffffffffffffffffffff168673ffffffffffffffffffffffffffffffffffffffff1614610469576040517f08c379a00000000000000000000000000000000000000000000000000000000081526004018080602001828103825260208152602001807f73686f756c64207472616e7366657220746f207468697320636f6e747261637481525060200191505060405180910390fd5b6000803373ffffffffffffffffffffffffffffffffffffffff1673ffffffffffffffffffffffffffffffffffffffff16815260200190815260200160002060009054906101000a900460ff1661050a576040517f08c379a00000000000000000000000000000000000000000000000000000000081526004018080602001828103825260368152602001806111b66036913960400191505060405180910390fd5b6060808585604081101561051d57600080fd5b810190808035906020019064010000000081111561053a57600080fd5b82018360208201111561054c57600080fd5b8035906020019184602083028401116401000000008311171561056e57600080fd5b919080806020026020016040519081016040528093929190818152602001838360200280828437600081840152601f19601f820116905080830192505050505050509192919290803590602001906401000000008111156105ce57600080fd5b8201836020820111156105e057600080fd5b8035906020019184602083028401116401000000008311171561060257600080fd5b919080806020026020016040519081016040528093929190818152602001838360200280828437600081840152601f19601f8201169050808301925050505050505091929192905050509150915060008251905081518351146106cd576040517f08c379a000000000000000000000000000000000000000000000000000000000815260040180806020018281038252601d8152602001807f746f7320616e642076616c73206c656e677468206e6f74206d6174636800000081525060200191505060405180910390fd5b6000805b828110156106fc578381815181106106e557fe5b6020026020010151820191508060010190506106d1565b50888114610755576040517f08c379a000000000000000000000000000000000000000000000000000000000815260040180806020018281038252602a81526020018061118c602a913960400191505060405180910390fd5b60007388887ed889e776bcbe2f0f9932ecfabcdfcd182073ffffffffffffffffffffffffffffffffffffffff1663aabbb8ca337fac7fbab5f54a3ca8194167523c6753bfeb96a445279294b6125b68cce21770546040518363ffffffff1660e01b8152600401808373ffffffffffffffffffffffffffffffffffffffff1681526020018281526020019250505060206040518083038186803b1580156107fa57600080fd5b505afa15801561080e573d6000803e3d6000fd5b505050506040513d602081101561082457600080fd5b81019080805190602001909291905050509050600073ffffffffffffffffffffffffffffffffffffffff168173ffffffffffffffffffffffffffffffffffffffff1614156108bd576040517f08c379a000000000000000000000000000000000000000000000000000000000815260040180806020018281038252602b8152602001806111ec602b913960400191505060405180910390fd5b60005b83811015610996578173ffffffffffffffffffffffffffffffffffffffff16639bd9bbc68783815181106108f057fe5b602002602001015187848151811061090457fe5b60200260200101516040518363ffffffff1660e01b8152600401808373ffffffffffffffffffffffffffffffffffffffff168152602001828152602001806020018281038252600081526020016020019350505050600060405180830381600087803b15801561097357600080fd5b505af1158015610987573d6000803e3d6000fd5b505050508060010190506108c0565b5050505050505050505050505050565b600160009054906101000a900473ffffffffffffffffffffffffffffffffffffffff1673ffffffffffffffffffffffffffffffffffffffff163373ffffffffffffffffffffffffffffffffffffffff1614610a69576040517f08c379a00000000000000000000000000000000000000000000000000000000081526004018080602001828103825260158152602001807f53656e646572206973206e6f74206d616e61676572000000000000000000000081525060200191505060405180910390fd5b806000808473ffffffffffffffffffffffffffffffffffffffff1673ffffffffffffffffffffffffffffffffffffffff16815260200190815260200160002060006101000a81548160ff0219169083151502179055505050565b606080828060200190516040811015610adb57600080fd5b8101908080516040519392919084640100000000821115610afb57600080fd5b83820191506020820185811115610b1157600080fd5b8251866020820283011164010000000082111715610b2e57600080fd5b8083526020830192505050908051906020019060200280838360005b83811015610b65578082015181840152602081019050610b4a565b5050505090500160405260200180516040519392919084640100000000821115610b8e57600080fd5b83820191506020820185811115610ba457600080fd5b8251866020820283011164010000000082111715610bc157600080fd5b8083526020830192505050908051906020019060200280838360005b83811015610bf8578082015181840152602081019050610bdd565b50505050905001604052505050915091506000825190508151835114610c86576040517f08c379a000000000000000000000000000000000000000000000000000000000815260040180806020018281038252601d8152602001807f746f7320616e642076616c73206c656e677468206e6f74206d6174636800000081525060200191505060405180910390fd5b6000805b82811015610cb557838181518110610c9e57fe5b602002602001015182019150806001019050610c8a565b50348114610d0e576040517f08c379a000000000000000000000000000000000000000000000000000000000815260040180806020018281038252602a81526020018061118c602a913960400191505060405180910390fd5b60005b82811015610d97576000858281518110610d2757fe5b602002602001015190508073ffffffffffffffffffffffffffffffffffffffff166108fc868481518110610d5757fe5b60200260200101519081150290604051600060405180830381858888f19350505050158015610d8a573d6000803e3d6000fd5b5050806001019050610d11565b505050505050565b60008060008373ffffffffffffffffffffffffffffffffffffffff1673ffffffffffffffffffffffffffffffffffffffff16815260200190815260200160002060009054906101000a900460ff169050919050565b600160009054906101000a900473ffffffffffffffffffffffffffffffffffffffff1673ffffffffffffffffffffffffffffffffffffffff163373ffffffffffffffffffffffffffffffffffffffff1614610eb7576040517f08c379a00000000000000000000000000000000000000000000000000000000081526004018080602001828103825260158152602001807f53656e646572206973206e6f74206d616e61676572000000000000000000000081525060200191505060405180910390fd5b808273ffffffffffffffffffffffffffffffffffffffff166370a08231306040518263ffffffff1660e01b8152600401808273ffffffffffffffffffffffffffffffffffffffff16815260200191505060206040518083038186803b158015610f1f57600080fd5b505afa158015610f33573d6000803e3d6000fd5b505050506040513d6020811015610f4957600080fd5b81019080805190602001909291905050501015610fb1576040517f08c379a000000000000000000000000000000000000000000000000000000000815260040180806020018281038252602f815260200180611217602f913960400191505060405180910390fd5b8173ffffffffffffffffffffffffffffffffffffffff1663a9059cbb600160009054906101000a900473ffffffffffffffffffffffffffffffffffffffff16836040518363ffffffff1660e01b8152600401808373ffffffffffffffffffffffffffffffffffffffff16815260200182815260200192505050602060405180830381600087803b15801561104457600080fd5b505af1158015611058573d6000803e3d6000fd5b505050506040513d602081101561106e57600080fd5b8101908080519060200190929190505050505050565b600160009054906101000a900473ffffffffffffffffffffffffffffffffffffffff1673ffffffffffffffffffffffffffffffffffffffff163373ffffffffffffffffffffffffffffffffffffffff1614611147576040517f08c379a00000000000000000000000000000000000000000000000000000000081526004018080602001828103825260158152602001807f53656e646572206973206e6f74206d616e61676572000000000000000000000081525060200191505060405180910390fd5b80600160006101000a81548173ffffffffffffffffffffffffffffffffffffffff021916908373ffffffffffffffffffffffffffffffffffffffff1602179055505056fe416d6f756e742073686f756c6420657175616c20746f207468652073756d206f66207472616e736665725468652045524337373720546f6b656e206973206e6f74207265676973746572656420696e20726f7574696e6720636f6e74726163744d6573736167652073656e6465722073686f756c6420626520616e2065726337373720636f6e74726163745472616e736665722076616c75652069732067726561746572207468616e20636f6e74726163742062616c616e6365a26469706673582212207eb43ac93d1b870dbda1904f383af750c06d1cb35b9d06b1c4d551260dbfdd1a64736f6c634300060c0033",
  "immutableReferences": {},
  "source": "// contracts/GLDToken.sol\r\n// SPDX-License-Identifier: MIT\r\npragma solidity >=0.6.2 <0.8.0;\r\n\r\n// import \"@openzeppelin/contracts/token/ERC777/ERC777.sol\";\r\n\r\nimport \"@openzeppelin/contracts/token/ERC20/IERC20.sol\";\r\nimport \"@openzeppelin/contracts/token/ERC777/IERC777.sol\";\r\nimport \"@openzeppelin/contracts/token/ERC777/IERC777Recipient.sol\";\r\nimport \"@openzeppelin/contracts/introspection/IERC1820Registry.sol\";\r\n\r\ncontract TransferToken is IERC777Recipient {\r\n    IERC1820Registry internal constant _ERC1820_REGISTRY =\r\n        IERC1820Registry(0x88887eD889e776bCBe2f0f9932EcFaBcDfCd1820);\r\n\r\n    mapping(address => bool) internal _trustedContracts;\r\n    address internal _manager;\r\n\r\n    modifier onlyManager {\r\n        require(msg.sender == _manager, \"Sender is not manager\");\r\n        _;\r\n    }\r\n\r\n    constructor(address[] memory trusted_contracts) public {\r\n        for (uint256 i = 0; i < trusted_contracts.length; i++) {\r\n            _trustedContracts[trusted_contracts[i]] = true;\r\n        }\r\n        _manager = msg.sender;\r\n        // keccak256(abi.encodePacked(\"ERC777TokensRecipient\")) == 0xb281fc8c12954d22544db45de3159a39272895b169a852b314f9cc762e44c53b\r\n        _ERC1820_REGISTRY.setInterfaceImplementer(\r\n            address(this),\r\n            0xb281fc8c12954d22544db45de3159a39272895b169a852b314f9cc762e44c53b,\r\n            address(this)\r\n        );\r\n    }\r\n\r\n    function changeManager(address newManager) public onlyManager {\r\n        _manager = newManager;\r\n    }\r\n\r\n    function isTrustedContract(address c) public view returns (bool) {\r\n        return _trustedContracts[c];\r\n    }\r\n\r\n    function setTrustedContractState(address c, bool state) public onlyManager {\r\n        // require(msg.sender == _manager);\r\n        _trustedContracts[c] = state;\r\n    }\r\n\r\n    function retrieveToken(address tokenContract, uint256 value)\r\n        public\r\n        onlyManager\r\n    {\r\n        // require balance > value\r\n        // address implementer = _ERC1820_REGISTRY.getInterfaceImplementer(msg.sender, keccak256(\"ERC777Token\"));\r\n        // require (implementer != address(0), \"Token contract should be an erc777 contract\");\r\n\r\n        require(\r\n            IERC20(tokenContract).balanceOf(address(this)) >= value,\r\n            \"Transfer value is greater than contract balance\"\r\n        );\r\n        IERC20(tokenContract).transfer(_manager, value);\r\n    }\r\n\r\n    // 定义和 ERC777 token 相同的接口，便于js前端实现\r\n    // function send(address recipient, uint256 amount, bytes memory data) public {\r\n    function send(bytes memory userData) public payable {\r\n        (address [] memory tos, uint256[] memory vals) =\r\n            abi.decode(userData, (address[], uint256[]));\r\n\r\n        uint256 length = tos.length;\r\n\r\n        require(tos.length == vals.length, \"tos and vals length not match\");\r\n\r\n        // 检查 amount 相同\r\n        uint256 sum = 0;\r\n        for (uint256 i = 0; i < length; ++i) {\r\n            sum += vals[i];\r\n        }\r\n        require(sum == msg.value, \"Amount should equal to the sum of transfer\");\r\n\r\n        for (uint256 i = 0; i < length; ++i) {\r\n            address payable recipient = address(uint160(tos[i]));\r\n            recipient.transfer(vals[i]);\r\n        }\r\n    }\r\n\r\n    // @notice called when someone attempts to transfer ERC-777 tokens to this address.  If this function were to throw or doesn't exist, then the token transfer would fail.\r\n    function tokensReceived(\r\n        address operator,\r\n        address from,\r\n        address to,\r\n        uint256 amount,\r\n        bytes calldata userData,\r\n        bytes calldata operatorData\r\n    ) external override {\r\n        require(to == address(this), \"should transfer to this contract\");\r\n        // 有可能是不必要的，但暂时保留\r\n        require(\r\n            _trustedContracts[msg.sender],\r\n            \"The ERC777 Token is not registered in routing contract\"\r\n        );\r\n\r\n        (address[] memory tos, uint256[] memory vals) =\r\n            abi.decode(userData, (address[], uint256[]));\r\n\r\n        uint256 length = tos.length;\r\n\r\n        require(tos.length == vals.length, \"tos and vals length not match\");\r\n\r\n        // 检查 amount 相同\r\n        uint256 sum = 0;\r\n        for (uint256 i = 0; i < length; ++i) {\r\n            sum += vals[i];\r\n        }\r\n        require(sum == amount, \"Amount should equal to the sum of transfer\");\r\n\r\n        // 本合约中不会有 ERC777 Token\r\n        // 这里合约只会调用 ERC777 合约的转账接口\r\n        address implementer =\r\n            _ERC1820_REGISTRY.getInterfaceImplementer(\r\n                msg.sender,\r\n                keccak256(\"ERC777Token\")\r\n            );\r\n        require(\r\n            implementer != address(0),\r\n            \"Message sender should be an erc777 contract\"\r\n        );\r\n        for (uint256 i = 0; i < length; ++i) {\r\n            IERC777(implementer).send(tos[i], vals[i], \"\");\r\n        }\r\n    }\r\n}\r\n",
  "sourcePath": "C:/Users/daerw/Documents/code/TokenBatchSender/contracts/TransferToken.sol",
  "compiler": {
    "name": "solc",
    "version": "0.6.12+commit.27d51765.Emscripten.clang"
  },
  "schemaVersion": "3.4.1",
  "updatedAt": "2021-05-13T09:18:22.700Z",
  "devdoc": {
    "kind": "dev",
    "methods": {
      "tokensReceived(address,address,address,uint256,bytes,bytes)": {
        "details": "Called by an {IERC777} token contract whenever tokens are being moved or created into a registered account (`to`). The type of operation is conveyed by `from` being the zero address or not. This call occurs _after_ the token contract's state is updated, so {IERC777-balanceOf}, etc., can be used to query the post-operation state. This function may revert to prevent the operation from being executed."
      }
    },
    "version": 1
  },
  "userdoc": {
    "kind": "user",
    "methods": {},
    "version": 1
  }
}