{
  "contractName": "TransferToken",
  "abi": [
    {
      "inputs": [
        {
          "internalType": "address[]",
          "name": "trusted_contracts",
          "type": "address[]"
        }
      ],
      "stateMutability": "nonpayable",
      "type": "constructor"
    },
    {
      "inputs": [
        {
          "internalType": "address",
          "name": "c",
          "type": "address"
        }
      ],
      "name": "isTrustedContract",
      "outputs": [
        {
          "internalType": "bool",
          "name": "",
          "type": "bool"
        }
      ],
      "stateMutability": "view",
      "type": "function"
    },
    {
      "inputs": [
        {
          "internalType": "address",
          "name": "c",
          "type": "address"
        },
        {
          "internalType": "bool",
          "name": "state",
          "type": "bool"
        }
      ],
      "name": "setTrustedContractState",
      "outputs": [],
      "stateMutability": "nonpayable",
      "type": "function"
    },
    {
      "inputs": [
        {
          "internalType": "address",
          "name": "tokenContract",
          "type": "address"
        },
        {
          "internalType": "uint256",
          "name": "value",
          "type": "uint256"
        }
      ],
      "name": "retrieveToken",
      "outputs": [],
      "stateMutability": "nonpayable",
      "type": "function"
    },
    {
      "inputs": [
        {
          "internalType": "address",
          "name": "operator",
          "type": "address"
        },
        {
          "internalType": "address",
          "name": "from",
          "type": "address"
        },
        {
          "internalType": "address",
          "name": "to",
          "type": "address"
        },
        {
          "internalType": "uint256",
          "name": "amount",
          "type": "uint256"
        },
        {
          "internalType": "bytes",
          "name": "userData",
          "type": "bytes"
        },
        {
          "internalType": "bytes",
          "name": "operatorData",
          "type": "bytes"
        }
      ],
      "name": "tokensReceived",
      "outputs": [],
      "stateMutability": "nonpayable",
      "type": "function"
    }
  ],
  "bytecode": "0x608060405234801561001057600080fd5b50604051610e65380380610e658339818101604052602081101561003357600080fd5b810190808051604051939291908464010000000082111561005357600080fd5b8382019150602082018581111561006957600080fd5b825186602082028301116401000000008211171561008657600080fd5b8083526020830192505050908051906020019060200280838360005b838110156100bd5780820151818401526020810190506100a2565b5050505090500160405250505060005b815181101561014d5760016000808484815181106100e757fe5b602002602001015173ffffffffffffffffffffffffffffffffffffffff1673ffffffffffffffffffffffffffffffffffffffff16815260200190815260200160002060006101000a81548160ff02191690831515021790555080806001019150506100cd565b5033600160006101000a81548173ffffffffffffffffffffffffffffffffffffffff021916908373ffffffffffffffffffffffffffffffffffffffff1602179055507388887ed889e776bcbe2f0f9932ecfabcdfcd182073ffffffffffffffffffffffffffffffffffffffff166329965a1d307fb281fc8c12954d22544db45de3159a39272895b169a852b314f9cc762e44c53b306040518463ffffffff1660e01b8152600401808473ffffffffffffffffffffffffffffffffffffffff1681526020018360001b81526020018273ffffffffffffffffffffffffffffffffffffffff1681526020019350505050600060405180830381600087803b15801561025557600080fd5b505af1158015610269573d6000803e3d6000fd5b5050505050610be88061027d6000396000f3fe608060405234801561001057600080fd5b506004361061004a5760003560e01c806223de291461004f578062589be4146101875780635bf3a315146101d75780635c511fe214610231575b600080fd5b610185600480360360c081101561006557600080fd5b81019080803573ffffffffffffffffffffffffffffffffffffffff169060200190929190803573ffffffffffffffffffffffffffffffffffffffff169060200190929190803573ffffffffffffffffffffffffffffffffffffffff16906020019092919080359060200190929190803590602001906401000000008111156100ec57600080fd5b8201836020820111156100fe57600080fd5b8035906020019184600183028401116401000000008311171561012057600080fd5b90919293919293908035906020019064010000000081111561014157600080fd5b82018360208201111561015357600080fd5b8035906020019184600183028401116401000000008311171561017557600080fd5b909192939192939050505061027f565b005b6101d56004803603604081101561019d57600080fd5b81019080803573ffffffffffffffffffffffffffffffffffffffff16906020019092919080351515906020019092919050505061087a565b005b610219600480360360208110156101ed57600080fd5b81019080803573ffffffffffffffffffffffffffffffffffffffff16906020019092919050505061092e565b60405180821515815260200191505060405180910390f35b61027d6004803603604081101561024757600080fd5b81019080803573ffffffffffffffffffffffffffffffffffffffff16906020019092919080359060200190929190505050610983565b005b3073ffffffffffffffffffffffffffffffffffffffff168673ffffffffffffffffffffffffffffffffffffffff1614610320576040517f08c379a00000000000000000000000000000000000000000000000000000000081526004018080602001828103825260208152602001807f73686f756c64207472616e7366657220746f207468697320636f6e747261637481525060200191505060405180910390fd5b6000803373ffffffffffffffffffffffffffffffffffffffff1673ffffffffffffffffffffffffffffffffffffffff16815260200190815260200160002060009054906101000a900460ff166103de576040517f08c379a00000000000000000000000000000000000000000000000000000000081526004018080602001828103825260188152602001807f546f6b656e206973206e6f7420726567697374657265642e000000000000000081525060200191505060405180910390fd5b606080858560408110156103f157600080fd5b810190808035906020019064010000000081111561040e57600080fd5b82018360208201111561042057600080fd5b8035906020019184602083028401116401000000008311171561044257600080fd5b919080806020026020016040519081016040528093929190818152602001838360200280828437600081840152601f19601f820116905080830192505050505050509192919290803590602001906401000000008111156104a257600080fd5b8201836020820111156104b457600080fd5b803590602001918460208302840111640100000000831117156104d657600080fd5b919080806020026020016040519081016040528093929190818152602001838360200280828437600081840152601f19601f8201169050808301925050505050505091929192905050509150915060008251905081518351146105a1576040517f08c379a000000000000000000000000000000000000000000000000000000000815260040180806020018281038252601d8152602001807f746f7320616e642076616c73206c656e677468206e6f74206d6174636800000081525060200191505060405180910390fd5b6000805b828110156105d0578381815181106105b957fe5b6020026020010151820191508060010190506105a5565b50888114610629576040517f08c379a000000000000000000000000000000000000000000000000000000000815260040180806020018281038252602a815260200180610b5e602a913960400191505060405180910390fd5b60007388887ed889e776bcbe2f0f9932ecfabcdfcd182073ffffffffffffffffffffffffffffffffffffffff1663aabbb8ca337fac7fbab5f54a3ca8194167523c6753bfeb96a445279294b6125b68cce21770546040518363ffffffff1660e01b8152600401808373ffffffffffffffffffffffffffffffffffffffff1681526020018281526020019250505060206040518083038186803b1580156106ce57600080fd5b505afa1580156106e2573d6000803e3d6000fd5b505050506040513d60208110156106f857600080fd5b81019080805190602001909291905050509050600073ffffffffffffffffffffffffffffffffffffffff168173ffffffffffffffffffffffffffffffffffffffff161415610791576040517f08c379a000000000000000000000000000000000000000000000000000000000815260040180806020018281038252602b815260200180610b88602b913960400191505060405180910390fd5b60005b8381101561086a578173ffffffffffffffffffffffffffffffffffffffff16639bd9bbc68783815181106107c457fe5b60200260200101518784815181106107d857fe5b60200260200101516040518363ffffffff1660e01b8152600401808373ffffffffffffffffffffffffffffffffffffffff168152602001828152602001806020018281038252600081526020016020019350505050600060405180830381600087803b15801561084757600080fd5b505af115801561085b573d6000803e3d6000fd5b50505050806001019050610794565b5050505050505050505050505050565b600160009054906101000a900473ffffffffffffffffffffffffffffffffffffffff1673ffffffffffffffffffffffffffffffffffffffff163373ffffffffffffffffffffffffffffffffffffffff16146108d457600080fd5b806000808473ffffffffffffffffffffffffffffffffffffffff1673ffffffffffffffffffffffffffffffffffffffff16815260200190815260200160002060006101000a81548160ff0219169083151502179055505050565b60008060008373ffffffffffffffffffffffffffffffffffffffff1673ffffffffffffffffffffffffffffffffffffffff16815260200190815260200160002060009054906101000a900460ff169050919050565b600160009054906101000a900473ffffffffffffffffffffffffffffffffffffffff1673ffffffffffffffffffffffffffffffffffffffff163373ffffffffffffffffffffffffffffffffffffffff16146109dd57600080fd5b808273ffffffffffffffffffffffffffffffffffffffff166370a08231306040518263ffffffff1660e01b8152600401808273ffffffffffffffffffffffffffffffffffffffff16815260200191505060206040518083038186803b158015610a4557600080fd5b505afa158015610a59573d6000803e3d6000fd5b505050506040513d6020811015610a6f57600080fd5b810190808051906020019092919050505011610a8a57600080fd5b8173ffffffffffffffffffffffffffffffffffffffff1663a9059cbb600160009054906101000a900473ffffffffffffffffffffffffffffffffffffffff16836040518363ffffffff1660e01b8152600401808373ffffffffffffffffffffffffffffffffffffffff16815260200182815260200192505050602060405180830381600087803b158015610b1d57600080fd5b505af1158015610b31573d6000803e3d6000fd5b505050506040513d6020811015610b4757600080fd5b810190808051906020019092919050505050505056fe416d6f756e742073686f756c6420657175616c20746f207468652073756d206f66207472616e736665724d6573736167652073656e6465722073686f756c6420626520616e2065726337373720636f6e7472616374a26469706673582212200214d31614c355a9ad14b12de448f32072eb3cb9f636c05f78d1dfcfc2b4100264736f6c634300060c0033",
  "immutableReferences": {},
  "source": "// contracts/GLDToken.sol\n// SPDX-License-Identifier: MIT\npragma solidity >=0.6.2 <0.8.0;\n\n// import \"@openzeppelin/contracts/token/ERC777/ERC777.sol\";\n\nimport \"@openzeppelin/contracts/token/ERC20/IERC20.sol\";\nimport \"@openzeppelin/contracts/token/ERC777/IERC777.sol\";\nimport \"@openzeppelin/contracts/token/ERC777/IERC777Recipient.sol\";\nimport \"@openzeppelin/contracts/introspection/IERC1820Registry.sol\";\n\n\ncontract TransferToken is IERC777Recipient {\n    \n    IERC1820Registry constant internal _ERC1820_REGISTRY = IERC1820Registry(0x88887eD889e776bCBe2f0f9932EcFaBcDfCd1820);\n    \n    mapping(address => bool) internal _TRUSTED_CONTRACTS;\n    address internal _MANAGER;\n\n    modifier onlyManager {\n        require(msg.sender == _MANAGER);\n        _;\n    }\n\n    constructor(address[] memory trusted_contracts)\n        public\n    {\n        for (uint i = 0; i < trusted_contracts.length; i++) {\n            _TRUSTED_CONTRACTS[trusted_contracts[i]] = true;\n        }\n        _MANAGER = msg.sender;\n        // keccak256(abi.encodePacked(\"ERC777TokensRecipient\")) == 0xb281fc8c12954d22544db45de3159a39272895b169a852b314f9cc762e44c53b\n        _ERC1820_REGISTRY.setInterfaceImplementer(address(this), 0xb281fc8c12954d22544db45de3159a39272895b169a852b314f9cc762e44c53b, address(this));\n    }\n\n    function isTrustedContract(address c) public view returns (bool) {\n        return _TRUSTED_CONTRACTS[c];\n    }\n\n    function setTrustedContractState(address c, bool state) public onlyManager {\n        // require(msg.sender == _MANAGER);\n        _TRUSTED_CONTRACTS[c] = state;\n    }\n\n    // TODO: test needed\n    function retrieveToken(address tokenContract, uint value) public onlyManager {\n        // require balance > value\n        // address implementer = _ERC1820_REGISTRY.getInterfaceImplementer(msg.sender, keccak256(\"ERC777Token\"));\n        // require (implementer != address(0), \"Token contract should be an erc777 contract\");\n\n        require(IERC20(tokenContract).balanceOf(address(this)) > value);\n        IERC20(tokenContract).transfer(_MANAGER ,value);\n    }\n\n    // @notice called when someone attempts to transfer ERC-777 tokens to this address.  If this function were to throw or doesn't exist, then the token transfer would fail.\n    function tokensReceived(\n        address operator,\n        address from,\n        address to,\n        uint256 amount,\n        bytes calldata userData,\n        bytes calldata operatorData\n    ) override external {\n        require(to == address(this), \"should transfer to this contract\");\n        // require msg.sender be trusted contracts\n        require(_TRUSTED_CONTRACTS[msg.sender], \"Token is not registered.\");\n\n        (address[] memory tos,uint256[] memory vals) = abi.decode(userData, (address[], uint256[]));\n\n        \n        uint256 length = tos.length;\n\n        require(tos.length == vals.length, \"tos and vals length not match\");\n\n        // 检查 amount 相同\n        uint256 sum = 0;\n        for (uint256 i = 0; i < length; ++i) {\n            sum += vals[i];\n        }\n        require(sum == amount, \"Amount should equal to the sum of transfer\");\n\n        // msg.sender是被信任的 因此其implementer也是被信任的\n        address implementer = _ERC1820_REGISTRY.getInterfaceImplementer(msg.sender, keccak256(\"ERC777Token\"));\n        require (implementer != address(0), \"Message sender should be an erc777 contract\");\n        for (uint256 i = 0; i < length; ++i) {\n            IERC777(implementer).send(tos[i], vals[i], \"\");\n        }\n    }\n}\n",
  "sourcePath": "/Users/zhangwenda/Documents/code/TokenBatchSender/contracts/TransferToken.sol",
  "compiler": {
    "name": "solc",
    "version": "0.6.12+commit.27d51765.Emscripten.clang"
  },
  "schemaVersion": "3.3.4",
  "updatedAt": "2021-04-27T06:35:09.164Z",
  "devdoc": {
    "kind": "dev",
    "methods": {
      "tokensReceived(address,address,address,uint256,bytes,bytes)": {
        "details": "Called by an {IERC777} token contract whenever tokens are being moved or created into a registered account (`to`). The type of operation is conveyed by `from` being the zero address or not. This call occurs _after_ the token contract's state is updated, so {IERC777-balanceOf}, etc., can be used to query the post-operation state. This function may revert to prevent the operation from being executed."
      }
    },
    "version": 1
  },
  "userdoc": {
    "kind": "user",
    "methods": {},
    "version": 1
  }
}